{
  "_format": "hh-sol-artifact-1",
  "contractName": "Marketplace",
  "sourceName": "src/backend/contracts/Marketplace.sol",
  "abi": [
    {
      "inputs": [
        {
          "internalType": "uint256",
          "name": "_feePercent",
          "type": "uint256"
        }
      ],
      "stateMutability": "nonpayable",
      "type": "constructor"
    },
    {
      "anonymous": false,
      "inputs": [
        {
          "indexed": false,
          "internalType": "uint256",
          "name": "auctionId",
          "type": "uint256"
        },
        {
          "indexed": true,
          "internalType": "address",
          "name": "nft",
          "type": "address"
        },
        {
          "indexed": false,
          "internalType": "uint256",
          "name": "tokenId",
          "type": "uint256"
        },
        {
          "indexed": true,
          "internalType": "address",
          "name": "seller",
          "type": "address"
        },
        {
          "indexed": false,
          "internalType": "uint256",
          "name": "endTime",
          "type": "uint256"
        }
      ],
      "name": "AuctionCreated",
      "type": "event"
    },
    {
      "anonymous": false,
      "inputs": [
        {
          "indexed": false,
          "internalType": "uint256",
          "name": "auctionId",
          "type": "uint256"
        },
        {
          "indexed": true,
          "internalType": "address",
          "name": "nft",
          "type": "address"
        },
        {
          "indexed": false,
          "internalType": "uint256",
          "name": "tokenId",
          "type": "uint256"
        },
        {
          "indexed": true,
          "internalType": "address",
          "name": "seller",
          "type": "address"
        },
        {
          "indexed": true,
          "internalType": "address",
          "name": "highestBidder",
          "type": "address"
        },
        {
          "indexed": false,
          "internalType": "uint256",
          "name": "highestBid",
          "type": "uint256"
        }
      ],
      "name": "AuctionEnded",
      "type": "event"
    },
    {
      "anonymous": false,
      "inputs": [
        {
          "indexed": false,
          "internalType": "uint256",
          "name": "auctionId",
          "type": "uint256"
        },
        {
          "indexed": true,
          "internalType": "address",
          "name": "nft",
          "type": "address"
        },
        {
          "indexed": false,
          "internalType": "uint256",
          "name": "tokenId",
          "type": "uint256"
        },
        {
          "indexed": true,
          "internalType": "address",
          "name": "bidder",
          "type": "address"
        },
        {
          "indexed": false,
          "internalType": "uint256",
          "name": "amount",
          "type": "uint256"
        }
      ],
      "name": "BidPlaced",
      "type": "event"
    },
    {
      "anonymous": false,
      "inputs": [
        {
          "indexed": false,
          "internalType": "uint256",
          "name": "itemId",
          "type": "uint256"
        },
        {
          "indexed": true,
          "internalType": "address",
          "name": "nft",
          "type": "address"
        },
        {
          "indexed": false,
          "internalType": "uint256",
          "name": "tokenId",
          "type": "uint256"
        },
        {
          "indexed": false,
          "internalType": "uint256",
          "name": "price",
          "type": "uint256"
        },
        {
          "indexed": true,
          "internalType": "address",
          "name": "seller",
          "type": "address"
        },
        {
          "indexed": true,
          "internalType": "address",
          "name": "buyer",
          "type": "address"
        }
      ],
      "name": "Bought",
      "type": "event"
    },
    {
      "anonymous": false,
      "inputs": [
        {
          "indexed": false,
          "internalType": "uint256",
          "name": "itemId",
          "type": "uint256"
        },
        {
          "indexed": true,
          "internalType": "address",
          "name": "nft",
          "type": "address"
        },
        {
          "indexed": false,
          "internalType": "uint256",
          "name": "tokenId",
          "type": "uint256"
        },
        {
          "indexed": true,
          "internalType": "address",
          "name": "user",
          "type": "address"
        }
      ],
      "name": "Liked",
      "type": "event"
    },
    {
      "anonymous": false,
      "inputs": [
        {
          "indexed": false,
          "internalType": "uint256",
          "name": "itemId",
          "type": "uint256"
        },
        {
          "indexed": true,
          "internalType": "address",
          "name": "nft",
          "type": "address"
        },
        {
          "indexed": false,
          "internalType": "uint256",
          "name": "tokenId",
          "type": "uint256"
        },
        {
          "indexed": false,
          "internalType": "uint256",
          "name": "price",
          "type": "uint256"
        },
        {
          "indexed": true,
          "internalType": "address",
          "name": "seller",
          "type": "address"
        }
      ],
      "name": "Offered",
      "type": "event"
    },
    {
      "anonymous": false,
      "inputs": [
        {
          "indexed": false,
          "internalType": "uint256",
          "name": "itemId",
          "type": "uint256"
        },
        {
          "indexed": true,
          "internalType": "address",
          "name": "nft",
          "type": "address"
        },
        {
          "indexed": false,
          "internalType": "uint256",
          "name": "tokenId",
          "type": "uint256"
        },
        {
          "indexed": true,
          "internalType": "address",
          "name": "seller",
          "type": "address"
        }
      ],
      "name": "Removed",
      "type": "event"
    },
    {
      "anonymous": false,
      "inputs": [
        {
          "indexed": false,
          "internalType": "uint256",
          "name": "itemId",
          "type": "uint256"
        },
        {
          "indexed": true,
          "internalType": "address",
          "name": "nft",
          "type": "address"
        },
        {
          "indexed": false,
          "internalType": "uint256",
          "name": "tokenId",
          "type": "uint256"
        },
        {
          "indexed": true,
          "internalType": "address",
          "name": "user",
          "type": "address"
        }
      ],
      "name": "Unliked",
      "type": "event"
    },
    {
      "inputs": [],
      "name": "auctionCount",
      "outputs": [
        {
          "internalType": "uint256",
          "name": "",
          "type": "uint256"
        }
      ],
      "stateMutability": "view",
      "type": "function"
    },
    {
      "inputs": [
        {
          "internalType": "uint256",
          "name": "",
          "type": "uint256"
        }
      ],
      "name": "auctions",
      "outputs": [
        {
          "internalType": "uint256",
          "name": "auctionId",
          "type": "uint256"
        },
        {
          "internalType": "contract IERC721",
          "name": "nft",
          "type": "address"
        },
        {
          "internalType": "uint256",
          "name": "tokenId",
          "type": "uint256"
        },
        {
          "internalType": "address payable",
          "name": "seller",
          "type": "address"
        },
        {
          "internalType": "uint256",
          "name": "startTime",
          "type": "uint256"
        },
        {
          "internalType": "uint256",
          "name": "endTime",
          "type": "uint256"
        },
        {
          "internalType": "uint256",
          "name": "highestBid",
          "type": "uint256"
        },
        {
          "internalType": "address payable",
          "name": "highestBidder",
          "type": "address"
        },
        {
          "internalType": "bool",
          "name": "ended",
          "type": "bool"
        }
      ],
      "stateMutability": "view",
      "type": "function"
    },
    {
      "inputs": [
        {
          "internalType": "contract IERC721",
          "name": "_nft",
          "type": "address"
        },
        {
          "internalType": "uint256",
          "name": "_tokenId",
          "type": "uint256"
        },
        {
          "internalType": "uint256",
          "name": "_duration",
          "type": "uint256"
        }
      ],
      "name": "createAuction",
      "outputs": [],
      "stateMutability": "nonpayable",
      "type": "function"
    },
    {
      "inputs": [
        {
          "internalType": "uint256",
          "name": "_auctionId",
          "type": "uint256"
        }
      ],
      "name": "endAuction",
      "outputs": [],
      "stateMutability": "nonpayable",
      "type": "function"
    },
    {
      "inputs": [],
      "name": "feeAccount",
      "outputs": [
        {
          "internalType": "address payable",
          "name": "",
          "type": "address"
        }
      ],
      "stateMutability": "view",
      "type": "function"
    },
    {
      "inputs": [],
      "name": "feePercent",
      "outputs": [
        {
          "internalType": "uint256",
          "name": "",
          "type": "uint256"
        }
      ],
      "stateMutability": "view",
      "type": "function"
    },
    {
      "inputs": [
        {
          "internalType": "uint256",
          "name": "_itemId",
          "type": "uint256"
        }
      ],
      "name": "getTotalPrice",
      "outputs": [
        {
          "internalType": "uint256",
          "name": "",
          "type": "uint256"
        }
      ],
      "stateMutability": "view",
      "type": "function"
    },
    {
      "inputs": [],
      "name": "itemCount",
      "outputs": [
        {
          "internalType": "uint256",
          "name": "",
          "type": "uint256"
        }
      ],
      "stateMutability": "view",
      "type": "function"
    },
    {
      "inputs": [
        {
          "internalType": "uint256",
          "name": "",
          "type": "uint256"
        }
      ],
      "name": "itemLikes",
      "outputs": [
        {
          "internalType": "uint256",
          "name": "",
          "type": "uint256"
        }
      ],
      "stateMutability": "view",
      "type": "function"
    },
    {
      "inputs": [
        {
          "internalType": "uint256",
          "name": "",
          "type": "uint256"
        }
      ],
      "name": "items",
      "outputs": [
        {
          "internalType": "uint256",
          "name": "itemId",
          "type": "uint256"
        },
        {
          "internalType": "contract IERC721",
          "name": "nft",
          "type": "address"
        },
        {
          "internalType": "uint256",
          "name": "tokenId",
          "type": "uint256"
        },
        {
          "internalType": "uint256",
          "name": "price",
          "type": "uint256"
        },
        {
          "internalType": "address payable",
          "name": "seller",
          "type": "address"
        },
        {
          "internalType": "bool",
          "name": "sold",
          "type": "bool"
        }
      ],
      "stateMutability": "view",
      "type": "function"
    },
    {
      "inputs": [
        {
          "internalType": "uint256",
          "name": "_itemId",
          "type": "uint256"
        }
      ],
      "name": "likeItem",
      "outputs": [],
      "stateMutability": "nonpayable",
      "type": "function"
    },
    {
      "inputs": [
        {
          "internalType": "contract IERC721",
          "name": "_nft",
          "type": "address"
        },
        {
          "internalType": "uint256",
          "name": "_tokenId",
          "type": "uint256"
        },
        {
          "internalType": "uint256",
          "name": "_price",
          "type": "uint256"
        }
      ],
      "name": "makeItem",
      "outputs": [],
      "stateMutability": "nonpayable",
      "type": "function"
    },
    {
      "inputs": [
        {
          "internalType": "uint256",
          "name": "_auctionId",
          "type": "uint256"
        }
      ],
      "name": "placeBid",
      "outputs": [],
      "stateMutability": "payable",
      "type": "function"
    },
    {
      "inputs": [
        {
          "internalType": "uint256",
          "name": "_itemId",
          "type": "uint256"
        }
      ],
      "name": "purchaseItem",
      "outputs": [],
      "stateMutability": "payable",
      "type": "function"
    },
    {
      "inputs": [
        {
          "internalType": "uint256",
          "name": "_itemId",
          "type": "uint256"
        }
      ],
      "name": "removeItem",
      "outputs": [],
      "stateMutability": "nonpayable",
      "type": "function"
    },
    {
      "inputs": [
        {
          "internalType": "uint256",
          "name": "_itemId",
          "type": "uint256"
        }
      ],
      "name": "unlikeItem",
      "outputs": [],
      "stateMutability": "nonpayable",
      "type": "function"
    },
    {
      "inputs": [
        {
          "internalType": "uint256",
          "name": "",
          "type": "uint256"
        },
        {
          "internalType": "address",
          "name": "",
          "type": "address"
        }
      ],
      "name": "userBids",
      "outputs": [
        {
          "internalType": "bool",
          "name": "",
          "type": "bool"
        }
      ],
      "stateMutability": "view",
      "type": "function"
    },
    {
      "inputs": [
        {
          "internalType": "uint256",
          "name": "",
          "type": "uint256"
        },
        {
          "internalType": "address",
          "name": "",
          "type": "address"
        }
      ],
      "name": "userLikes",
      "outputs": [
        {
          "internalType": "bool",
          "name": "",
          "type": "bool"
        }
      ],
      "stateMutability": "view",
      "type": "function"
    }
  ],
  "bytecode": "0x60c06040523480156200001157600080fd5b5060405162002d4038038062002d4083398181016040528101906200003791906200009c565b60016000819055503373ffffffffffffffffffffffffffffffffffffffff1660808173ffffffffffffffffffffffffffffffffffffffff1660601b815250508060a0818152505050620000ec565b6000815190506200009681620000d2565b92915050565b600060208284031215620000af57600080fd5b6000620000bf8482850162000085565b91505092915050565b6000819050919050565b620000dd81620000c8565b8114620000e957600080fd5b50565b60805160601c60a051612c1d6200012360003960008181610b2201526116510152600081816107be01526118310152612c1d6000f3fe6080604052600436106101095760003560e01c80639979ef4511610095578063bfb231d211610064578063bfb231d214610376578063ca7dd375146103b8578063d38ea5bf146103f5578063d5d1975c14610411578063fa00afc71461043a57610109565b80639979ef45146102cb578063abb94051146102e7578063aebef2ba14610310578063b9a2de3a1461034d57610109565b806359be72ac116100dc57806359be72ac146101e457806365e17c9d146102215780636bfb0d011461024c57806371329171146102775780637fd6f15c146102a057610109565b80632ad715731461010e5780632b76708b1461013957806351f9357214610176578063571a26a01461019f575b600080fd5b34801561011a57600080fd5b50610123610463565b60405161013091906124f2565b60405180910390f35b34801561014557600080fd5b50610160600480360381019061015b919061200e565b610469565b60405161016d9190612317565b60405180910390f35b34801561018257600080fd5b5061019d60048036038101906101989190611fe5565b610498565b005b3480156101ab57600080fd5b506101c660048036038101906101c19190611fe5565b6106d2565b6040516101db9998979695949392919061250d565b60405180910390f35b3480156101f057600080fd5b5061020b6004803603810190610206919061200e565b61078d565b6040516102189190612317565b60405180910390f35b34801561022d57600080fd5b506102366107bc565b604051610243919061228e565b60405180910390f35b34801561025857600080fd5b506102616107e0565b60405161026e91906124f2565b60405180910390f35b34801561028357600080fd5b5061029e60048036038101906102999190611fe5565b6107e6565b005b3480156102ac57600080fd5b506102b5610b20565b6040516102c291906124f2565b60405180910390f35b6102e560048036038101906102e09190611fe5565b610b44565b005b3480156102f357600080fd5b5061030e60048036038101906103099190611f96565b610eac565b005b34801561031c57600080fd5b5061033760048036038101906103329190611fe5565b611192565b60405161034491906124f2565b60405180910390f35b34801561035957600080fd5b50610374600480360381019061036f9190611fe5565b6111aa565b005b34801561038257600080fd5b5061039d60048036038101906103989190611fe5565b6115c2565b6040516103af9695949392919061259a565b60405180910390f35b3480156103c457600080fd5b506103df60048036038101906103da9190611fe5565b61164b565b6040516103ec91906124f2565b60405180910390f35b61040f600480360381019061040a9190611fe5565b6116ae565b005b34801561041d57600080fd5b5061043860048036038101906104339190611fe5565b611a36565b005b34801561044657600080fd5b50610461600480360381019061045c9190611f96565b611c71565b005b60025481565b60056020528160005260406000206020528060005260406000206000915091509054906101000a900460ff1681565b6104a0611efd565b60006003600083815260200190815260200160002090506000821180156104c957506001548211155b610508576040517f08c379a00000000000000000000000000000000000000000000000000000000081526004016104ff906123f2565b60405180910390fd5b6006600083815260200190815260200160002060003373ffffffffffffffffffffffffffffffffffffffff1673ffffffffffffffffffffffffffffffffffffffff16815260200190815260200160002060009054906101000a900460ff166105a5576040517f08c379a000000000000000000000000000000000000000000000000000000000815260040161059c90612372565b60405180910390fd5b60006006600084815260200190815260200160002060003373ffffffffffffffffffffffffffffffffffffffff1673ffffffffffffffffffffffffffffffffffffffff16815260200190815260200160002060006101000a81548160ff02191690831515021790555060076000838152602001908152602001600020600081548092919061063290612847565b91905055503373ffffffffffffffffffffffffffffffffffffffff168160010160009054906101000a900473ffffffffffffffffffffffffffffffffffffffff1673ffffffffffffffffffffffffffffffffffffffff167f07f41e3260b7445dc628f9cb60b295b41275b4a92451ce6de74b95a6c8d90c818484600201546040516106be9291906125fb565b60405180910390a3506106cf611f4d565b50565b60046020528060005260406000206000915090508060000154908060010160009054906101000a900473ffffffffffffffffffffffffffffffffffffffff16908060020154908060030160009054906101000a900473ffffffffffffffffffffffffffffffffffffffff16908060040154908060050154908060060154908060070160009054906101000a900473ffffffffffffffffffffffffffffffffffffffff16908060070160149054906101000a900460ff16905089565b60066020528160005260406000206020528060005260406000206000915091509054906101000a900460ff1681565b7f000000000000000000000000000000000000000000000000000000000000000081565b60015481565b6107ee611efd565b600060036000838152602001908152602001600020905060008211801561081757506001548211155b610856576040517f08c379a000000000000000000000000000000000000000000000000000000000815260040161084d906123f2565b60405180910390fd5b3373ffffffffffffffffffffffffffffffffffffffff168160040160009054906101000a900473ffffffffffffffffffffffffffffffffffffffff1673ffffffffffffffffffffffffffffffffffffffff16146108e8576040517f08c379a00000000000000000000000000000000000000000000000000000000081526004016108df90612432565b60405180910390fd5b8060040160149054906101000a900460ff161561093a576040517f08c379a000000000000000000000000000000000000000000000000000000000815260040161093190612472565b60405180910390fd5b8060010160009054906101000a900473ffffffffffffffffffffffffffffffffffffffff1673ffffffffffffffffffffffffffffffffffffffff166323b872dd303384600201546040518463ffffffff1660e01b815260040161099f939291906122e0565b600060405180830381600087803b1580156109b957600080fd5b505af11580156109cd573d6000803e3d6000fd5b50505050600360008381526020019081526020016000206000808201600090556001820160006101000a81549073ffffffffffffffffffffffffffffffffffffffff0219169055600282016000905560038201600090556004820160006101000a81549073ffffffffffffffffffffffffffffffffffffffff02191690556004820160146101000a81549060ff021916905550508060040160009054906101000a900473ffffffffffffffffffffffffffffffffffffffff1673ffffffffffffffffffffffffffffffffffffffff168160010160009054906101000a900473ffffffffffffffffffffffffffffffffffffffff1673ffffffffffffffffffffffffffffffffffffffff167f361cd73b1b093e176299c77d4e29279d55387acfbea070f58e201c02ea988d03848460020154604051610b0c9291906125fb565b60405180910390a350610b1d611f4d565b50565b7f000000000000000000000000000000000000000000000000000000000000000081565b610b4c611efd565b6000600460008381526020019081526020016000209050600082118015610b7557506002548211155b610bb4576040517f08c379a0000000000000000000000000000000000000000000000000000000008152600401610bab90612412565b60405180910390fd5b80600501544210610bfa576040517f08c379a0000000000000000000000000000000000000000000000000000000008152600401610bf1906123b2565b60405180910390fd5b80600601543411610c40576040517f08c379a0000000000000000000000000000000000000000000000000000000008152600401610c37906123d2565b60405180910390fd5b6005600083815260200190815260200160002060003373ffffffffffffffffffffffffffffffffffffffff1673ffffffffffffffffffffffffffffffffffffffff16815260200190815260200160002060009054906101000a900460ff1615610cde576040517f08c379a0000000000000000000000000000000000000000000000000000000008152600401610cd5906124b2565b60405180910390fd5b6000816006015414610d5a578060070160009054906101000a900473ffffffffffffffffffffffffffffffffffffffff1673ffffffffffffffffffffffffffffffffffffffff166108fc82600601549081150290604051600060405180830381858888f19350505050158015610d58573d6000803e3d6000fd5b505b348160060181905550338160070160006101000a81548173ffffffffffffffffffffffffffffffffffffffff021916908373ffffffffffffffffffffffffffffffffffffffff16021790555060016005600084815260200190815260200160002060003373ffffffffffffffffffffffffffffffffffffffff1673ffffffffffffffffffffffffffffffffffffffff16815260200190815260200160002060006101000a81548160ff0219169083151502179055503373ffffffffffffffffffffffffffffffffffffffff168160010160009054906101000a900473ffffffffffffffffffffffffffffffffffffffff1673ffffffffffffffffffffffffffffffffffffffff167f2e296671c28b83e813c76e2acf7481f5a2cc46aaeb9bcf33b3e048f50e9c33e984846002015434604051610e9893929190612624565b60405180910390a350610ea9611f4d565b50565b610eb4611efd565b60026000815480929190610ec790612871565b91905055508273ffffffffffffffffffffffffffffffffffffffff166323b872dd3330856040518463ffffffff1660e01b8152600401610f09939291906122e0565b600060405180830381600087803b158015610f2357600080fd5b505af1158015610f37573d6000803e3d6000fd5b5050505060405180610120016040528060025481526020018473ffffffffffffffffffffffffffffffffffffffff1681526020018381526020013373ffffffffffffffffffffffffffffffffffffffff1681526020014281526020018242610f9f919061266c565b815260200160008152602001600073ffffffffffffffffffffffffffffffffffffffff168152602001600015158152506004600060025481526020019081526020016000206000820151816000015560208201518160010160006101000a81548173ffffffffffffffffffffffffffffffffffffffff021916908373ffffffffffffffffffffffffffffffffffffffff1602179055506040820151816002015560608201518160030160006101000a81548173ffffffffffffffffffffffffffffffffffffffff021916908373ffffffffffffffffffffffffffffffffffffffff1602179055506080820151816004015560a0820151816005015560c0820151816006015560e08201518160070160006101000a81548173ffffffffffffffffffffffffffffffffffffffff021916908373ffffffffffffffffffffffffffffffffffffffff1602179055506101008201518160070160146101000a81548160ff0219169083151502179055509050503373ffffffffffffffffffffffffffffffffffffffff168373ffffffffffffffffffffffffffffffffffffffff167f3b09e9d45a4888e136ef00723a0f3f68dbc542c762346c658ca268bca2ac4ce860025485854261116e919061266c565b60405161117d93929190612624565b60405180910390a361118d611f4d565b505050565b60076020528060005260406000206000915090505481565b6111b2611efd565b60006004600083815260200190815260200160002090508060050154421015611210576040517f08c379a000000000000000000000000000000000000000000000000000000000815260040161120790612452565b60405180910390fd5b8060070160149054906101000a900460ff1615611262576040517f08c379a0000000000000000000000000000000000000000000000000000000008152600401611259906123b2565b60405180910390fd5b60018160070160146101000a81548160ff021916908315150217905550600073ffffffffffffffffffffffffffffffffffffffff168160070160009054906101000a900473ffffffffffffffffffffffffffffffffffffffff1673ffffffffffffffffffffffffffffffffffffffff1614611406578060010160009054906101000a900473ffffffffffffffffffffffffffffffffffffffff1673ffffffffffffffffffffffffffffffffffffffff166323b872dd308360070160009054906101000a900473ffffffffffffffffffffffffffffffffffffffff1684600201546040518463ffffffff1660e01b8152600401611360939291906122a9565b600060405180830381600087803b15801561137a57600080fd5b505af115801561138e573d6000803e3d6000fd5b505050508060030160009054906101000a900473ffffffffffffffffffffffffffffffffffffffff1673ffffffffffffffffffffffffffffffffffffffff166108fc82600601549081150290604051600060405180830381858888f19350505050158015611400573d6000803e3d6000fd5b506114c2565b8060010160009054906101000a900473ffffffffffffffffffffffffffffffffffffffff1673ffffffffffffffffffffffffffffffffffffffff166323b872dd308360030160009054906101000a900473ffffffffffffffffffffffffffffffffffffffff1684600201546040518463ffffffff1660e01b815260040161148f939291906122a9565b600060405180830381600087803b1580156114a957600080fd5b505af11580156114bd573d6000803e3d6000fd5b505050505b8060070160009054906101000a900473ffffffffffffffffffffffffffffffffffffffff1673ffffffffffffffffffffffffffffffffffffffff168160030160009054906101000a900473ffffffffffffffffffffffffffffffffffffffff1673ffffffffffffffffffffffffffffffffffffffff168260010160009054906101000a900473ffffffffffffffffffffffffffffffffffffffff1673ffffffffffffffffffffffffffffffffffffffff167f2807ccda9a55916d0b10d7bb7b60a7fa1b3d1c4f0e0f500ad0dfaa6ba3c36cf085856002015486600601546040516115ae93929190612624565b60405180910390a4506115bf611f4d565b50565b60036020528060005260406000206000915090508060000154908060010160009054906101000a900473ffffffffffffffffffffffffffffffffffffffff16908060020154908060030154908060040160009054906101000a900473ffffffffffffffffffffffffffffffffffffffff16908060040160149054906101000a900460ff16905086565b600060647f0000000000000000000000000000000000000000000000000000000000000000606461167c919061266c565b600360008581526020019081526020016000206003015461169d91906126f3565b6116a791906126c2565b9050919050565b6116b6611efd565b60006116c18261164b565b905060006003600084815260200190815260200160002090506000831180156116ec57506001548311155b61172b576040517f08c379a0000000000000000000000000000000000000000000000000000000008152600401611722906123f2565b60405180910390fd5b8134101561176e576040517f08c379a000000000000000000000000000000000000000000000000000000000815260040161176590612392565b60405180910390fd5b8060040160149054906101000a900460ff16156117c0576040517f08c379a00000000000000000000000000000000000000000000000000000000081526004016117b790612332565b60405180910390fd5b8060040160009054906101000a900473ffffffffffffffffffffffffffffffffffffffff1673ffffffffffffffffffffffffffffffffffffffff166108fc82600301549081150290604051600060405180830381858888f1935050505015801561182e573d6000803e3d6000fd5b507f000000000000000000000000000000000000000000000000000000000000000073ffffffffffffffffffffffffffffffffffffffff166108fc826003015484611879919061274d565b9081150290604051600060405180830381858888f193505050501580156118a4573d6000803e3d6000fd5b5060018160040160146101000a81548160ff0219169083151502179055508060010160009054906101000a900473ffffffffffffffffffffffffffffffffffffffff1673ffffffffffffffffffffffffffffffffffffffff166323b872dd303384600201546040518463ffffffff1660e01b8152600401611927939291906122e0565b600060405180830381600087803b15801561194157600080fd5b505af1158015611955573d6000803e3d6000fd5b505050503373ffffffffffffffffffffffffffffffffffffffff168160040160009054906101000a900473ffffffffffffffffffffffffffffffffffffffff1673ffffffffffffffffffffffffffffffffffffffff168260010160009054906101000a900473ffffffffffffffffffffffffffffffffffffffff1673ffffffffffffffffffffffffffffffffffffffff167f8b4c9c8a607d67b321582dd8461041b1dc2ceeca70c8b7f37f8e02095cf2e76d8685600201548660030154604051611a2193929190612624565b60405180910390a45050611a33611f4d565b50565b611a3e611efd565b6000600360008381526020019081526020016000209050600082118015611a6757506001548211155b611aa6576040517f08c379a0000000000000000000000000000000000000000000000000000000008152600401611a9d906123f2565b60405180910390fd5b6006600083815260200190815260200160002060003373ffffffffffffffffffffffffffffffffffffffff1673ffffffffffffffffffffffffffffffffffffffff16815260200190815260200160002060009054906101000a900460ff1615611b44576040517f08c379a0000000000000000000000000000000000000000000000000000000008152600401611b3b90612492565b60405180910390fd5b60016006600084815260200190815260200160002060003373ffffffffffffffffffffffffffffffffffffffff1673ffffffffffffffffffffffffffffffffffffffff16815260200190815260200160002060006101000a81548160ff021916908315150217905550600760008381526020019081526020016000206000815480929190611bd190612871565b91905055503373ffffffffffffffffffffffffffffffffffffffff168160010160009054906101000a900473ffffffffffffffffffffffffffffffffffffffff1673ffffffffffffffffffffffffffffffffffffffff167f032b80e725808d9d27783eb45b11fc386f2bb103de78dcbdab4ff8ae8f15e420848460020154604051611c5d9291906125fb565b60405180910390a350611c6e611f4d565b50565b611c79611efd565b60008111611cbc576040517f08c379a0000000000000000000000000000000000000000000000000000000008152600401611cb390612352565b60405180910390fd5b60016000815480929190611ccf90612871565b91905055508273ffffffffffffffffffffffffffffffffffffffff166323b872dd3330856040518463ffffffff1660e01b8152600401611d11939291906122e0565b600060405180830381600087803b158015611d2b57600080fd5b505af1158015611d3f573d6000803e3d6000fd5b505050506040518060c0016040528060015481526020018473ffffffffffffffffffffffffffffffffffffffff1681526020018381526020018281526020013373ffffffffffffffffffffffffffffffffffffffff168152602001600015158152506003600060015481526020019081526020016000206000820151816000015560208201518160010160006101000a81548173ffffffffffffffffffffffffffffffffffffffff021916908373ffffffffffffffffffffffffffffffffffffffff160217905550604082015181600201556060820151816003015560808201518160040160006101000a81548173ffffffffffffffffffffffffffffffffffffffff021916908373ffffffffffffffffffffffffffffffffffffffff16021790555060a08201518160040160146101000a81548160ff0219169083151502179055509050503373ffffffffffffffffffffffffffffffffffffffff168373ffffffffffffffffffffffffffffffffffffffff167f655a0cf9c8db81512be9a76dc1c5ae5380b8816ce6ad659cd61b715e2999d59a6001548585604051611ee893929190612624565b60405180910390a3611ef8611f4d565b505050565b60026000541415611f43576040517f08c379a0000000000000000000000000000000000000000000000000000000008152600401611f3a906124d2565b60405180910390fd5b6002600081905550565b6001600081905550565b600081359050611f6681612ba2565b92915050565b600081359050611f7b81612bb9565b92915050565b600081359050611f9081612bd0565b92915050565b600080600060608486031215611fab57600080fd5b6000611fb986828701611f6c565b9350506020611fca86828701611f81565b9250506040611fdb86828701611f81565b9150509250925092565b600060208284031215611ff757600080fd5b600061200584828501611f81565b91505092915050565b6000806040838503121561202157600080fd5b600061202f85828601611f81565b925050602061204085828601611f57565b9150509250929050565b612053816127ed565b82525050565b61206281612793565b82525050565b61207181612781565b82525050565b612080816127a5565b82525050565b61208f816127ff565b82525050565b60006120a260118361265b565b91506120ad82612918565b602082019050919050565b60006120c5601f8361265b565b91506120d082612941565b602082019050919050565b60006120e860168361265b565b91506120f38261296a565b602082019050919050565b600061210b60338361265b565b915061211682612993565b604082019050919050565b600061212e60158361265b565b9150612139826129e2565b602082019050919050565b6000612151601d8361265b565b915061215c82612a0b565b602082019050919050565b600061217460128361265b565b915061217f82612a34565b602082019050919050565b600061219760168361265b565b91506121a282612a5d565b602082019050919050565b60006121ba60238361265b565b91506121c582612a86565b604082019050919050565b60006121dd60158361265b565b91506121e882612ad5565b602082019050919050565b600061220060198361265b565b915061220b82612afe565b602082019050919050565b6000612223601a8361265b565b915061222e82612b27565b602082019050919050565b6000612246601d8361265b565b915061225182612b50565b602082019050919050565b6000612269601f8361265b565b915061227482612b79565b602082019050919050565b612288816127e3565b82525050565b60006020820190506122a36000830184612059565b92915050565b60006060820190506122be6000830186612068565b6122cb602083018561204a565b6122d8604083018461227f565b949350505050565b60006060820190506122f56000830186612068565b6123026020830185612068565b61230f604083018461227f565b949350505050565b600060208201905061232c6000830184612077565b92915050565b6000602082019050818103600083015261234b81612095565b9050919050565b6000602082019050818103600083015261236b816120b8565b9050919050565b6000602082019050818103600083015261238b816120db565b9050919050565b600060208201905081810360008301526123ab816120fe565b9050919050565b600060208201905081810360008301526123cb81612121565b9050919050565b600060208201905081810360008301526123eb81612144565b9050919050565b6000602082019050818103600083015261240b81612167565b9050919050565b6000602082019050818103600083015261242b8161218a565b9050919050565b6000602082019050818103600083015261244b816121ad565b9050919050565b6000602082019050818103600083015261246b816121d0565b9050919050565b6000602082019050818103600083015261248b816121f3565b9050919050565b600060208201905081810360008301526124ab81612216565b9050919050565b600060208201905081810360008301526124cb81612239565b9050919050565b600060208201905081810360008301526124eb8161225c565b9050919050565b6000602082019050612507600083018461227f565b92915050565b600061012082019050612523600083018c61227f565b612530602083018b612086565b61253d604083018a61227f565b61254a6060830189612059565b612557608083018861227f565b61256460a083018761227f565b61257160c083018661227f565b61257e60e0830185612059565b61258c610100830184612077565b9a9950505050505050505050565b600060c0820190506125af600083018961227f565b6125bc6020830188612086565b6125c9604083018761227f565b6125d6606083018661227f565b6125e36080830185612059565b6125f060a0830184612077565b979650505050505050565b6000604082019050612610600083018561227f565b61261d602083018461227f565b9392505050565b6000606082019050612639600083018661227f565b612646602083018561227f565b612653604083018461227f565b949350505050565b600082825260208201905092915050565b6000612677826127e3565b9150612682836127e3565b9250827fffffffffffffffffffffffffffffffffffffffffffffffffffffffffffffffff038211156126b7576126b66128ba565b5b828201905092915050565b60006126cd826127e3565b91506126d8836127e3565b9250826126e8576126e76128e9565b5b828204905092915050565b60006126fe826127e3565b9150612709836127e3565b9250817fffffffffffffffffffffffffffffffffffffffffffffffffffffffffffffffff0483118215151615612742576127416128ba565b5b828202905092915050565b6000612758826127e3565b9150612763836127e3565b925082821015612776576127756128ba565b5b828203905092915050565b600061278c826127c3565b9050919050565b600061279e826127c3565b9050919050565b60008115159050919050565b60006127bc82612781565b9050919050565b600073ffffffffffffffffffffffffffffffffffffffff82169050919050565b6000819050919050565b60006127f882612823565b9050919050565b600061280a82612811565b9050919050565b600061281c826127c3565b9050919050565b600061282e82612835565b9050919050565b6000612840826127c3565b9050919050565b6000612852826127e3565b91506000821415612866576128656128ba565b5b600182039050919050565b600061287c826127e3565b91507fffffffffffffffffffffffffffffffffffffffffffffffffffffffffffffffff8214156128af576128ae6128ba565b5b600182019050919050565b7f4e487b7100000000000000000000000000000000000000000000000000000000600052601160045260246000fd5b7f4e487b7100000000000000000000000000000000000000000000000000000000600052601260045260246000fd5b7f6974656d20616c726561647920736f6c64000000000000000000000000000000600082015250565b7f5072696365206d7573742062652067726561746572207468616e207a65726f00600082015250565b7f4974656d206e6f74206c696b6564206279207573657200000000000000000000600082015250565b7f6e6f7420656e6f75676820657468657220746f20636f766572206974656d207060008201527f7269636520616e64206d61726b65742066656500000000000000000000000000602082015250565b7f41756374696f6e20616c726561647920656e6465640000000000000000000000600082015250565b7f546865726520616c726561647920697320612068696768657220626964000000600082015250565b7f6974656d20646f65736e27742065786973740000000000000000000000000000600082015250565b7f41756374696f6e20646f6573206e6f7420657869737400000000000000000000600082015250565b7f4f6e6c79207468652073656c6c65722063616e2072656d6f766520746865206960008201527f74656d0000000000000000000000000000000000000000000000000000000000602082015250565b7f41756374696f6e206e6f742079657420656e6465640000000000000000000000600082015250565b7f43616e6e6f742072656d6f7665206120736f6c64206974656d00000000000000600082015250565b7f4974656d20616c7265616479206c696b65642062792075736572000000000000600082015250565b7f557365722068617320616c726561647920706c61636564206120626964000000600082015250565b7f5265656e7472616e637947756172643a207265656e7472616e742063616c6c00600082015250565b612bab81612781565b8114612bb657600080fd5b50565b612bc2816127b1565b8114612bcd57600080fd5b50565b612bd9816127e3565b8114612be457600080fd5b5056fea26469706673582212204f912e5deda5718557f401dfa23d4920295214e343ff218125d82710e110b26d64736f6c63430008040033",
  "linkReferences": {},
  "deployedLinkReferences": {}
}